:0A0000000C9470000C9400000C94A6
:10000A0000000C9400000C9400000C9400000C9466
:10001A0000000C9400000C9400000C9400000C9456
:10002A0000000C9400000C9400000C9400000C9446
:10003A0000000C9400000C9400000C9400000C9436
:10004A0000000C9400000C9400004C6F77657374E8
:10005A002054656D70006D6561737572652030207E
:10006A004300486967686573742054656D70006D54
:10007A006561737572652031353020430054656DB2
:10008A0070657261747572653D00252E31660000D7
:10009A002D4E414E000080C001002D4E414E0049B8
:1000AA004E4600000C00600254000C006C02600016
:1000BA000D0078026C000E00850279000D00930293
:1000CA0087000200A0026A000200B602A000010036
:1000DA00BA02A2000000F894EE27ECBBF1E0FBBFE5
:1000EA00EBBFE5BF8DE0A2E0BB27ED938A95E9F768
:1000FA0080E098E0A0E6ED930197E9F7EEEAF0E0F8
:10010A0085919591009761F0A591B591059015900B
:10011A00BF01F00105900D920197E1F7FB01F0CFC5
:10012A00EFE5EDBFE8E0EEBFC0E6D2E00C94AB002D
:10013A00AA93E881E7B98BE18A95F1F7369A349B5D
:10014A00FECF349AE4B1F5B10C946805EFEFE7BB42
:10015A00E1BBE0E0E7B9EFE8E6B9E0E0E0BFA2E33F
:10016A00B0E00E94A507A0E10E943705E0E0E7BBE6
:10017A000E94E804B0990AC00E947306A0E6B2E0A1
:10018A000E947806ACE6B2E00E947F06B1990AC0E6
:10019A000E947306A8E7B2E00E947806A5E8B2E0DA
:1001AA000E947F06B29963C0A0E0C2DF2F010E94BD
:1001BA008506DF01CB01E3E3F3E363E070E40E9429
:1001CA00F308E093A202F093A3026093A40270934F
:1001DA00A5020E947306A3E9B2E00E941505E1E0B8
:1001EA00EA93A1E00E94D804E6EAF2E0FA93EA93DD
:1001FA00E4E9F0E0FA93EA93E091A202F091A30213
:10020A006091A4027091A5020E94DC0984E00E9418
:10021A0064042896A6EAB2E00E941505E7E0EA938C
:10022A00A1E00E94D804A0EAB2E00E9415050E944B
:10023A008A0608F4919A0E948A0630F00E9499066A
:10024A0011F008F001C001C008C0909891989298E6
:10025A00939894989598969897980E94990609F079
:10026A0008F401C0909AA4E6B0E00E94A50780CFE6
:10027A00FFCFBA93AA931A930A93AA81BB811296C3
:10028A000E94C309309729F1AA81BB8114960E9462
:10029A00C3098F01309761F00230E0E01E0780F059
:1002AA00F80131978F01AA81BB811496ED93FC93D3
:1002BA00AA81BB8112960E94A8063197AC81A083BD
:1002CA00AA81BB810E94C309FF2312F00E94A806DB
:1002DA0006C0AA81BB81EFEFFFEFED93FC93198172
:1002EA000881259608950E94AE06E0E8EA83EFE3C6
:1002FA00EB830E94F909EE85FF85EF3FAFEFFA071E
:10030A0049F4E885F985FA93EA93AAE9B0E00E94EC
:10031A006A05B7C0EF3FAFE7FA0749F4E885F98500
:10032A00FA93EA93ABE9B0E00E946A05AAC0AB85EA
:10033A00A73010F0E6E0EB871B85E12F1150E03083
:10034A0019F00E94B506F9CFEC85FD856E857F858B
:10035A000E94F30921F430E00E94B5062DC03B85C6
:10036A000E94C40609F008F40BC00E94B5060E9458
:10037A00C40628F00E94CF060E94D406F8CF0DC00A
:10038A000E94C40640F40E94CF060E94E0060E9422
:10039A00E7063150F5CF0E94B506EC85FD856E85DE
:1003AA007F850E94EC060E94E7060E94C40620F0A0
:1003BA000E94CF060E94D40610E0EB85E117A8F14F
:1003CA00AC81BD818E819F810E94F3060E94EC065A
:1003DA00DF01CB010E94C105EC83FD836E837F831D
:1003EA000E94CF060E94F3080E94E2070E2F0E9485
:1003FA00FA060E940107FF27662777270E941B0833
:10040A00AC81BD818E819F810E94A5080E94CF0682
:10041A000E9406070E94E706E12F1F5FE03069F697
:10042A000E94FA06EEE2EC93C8CF0E940B073197BE
:10043A00AA85A08330302CF43195A885B985EDE2E0
:10044A0003C0A885B985EBE2EC930E940B070E94D2
:10045A000B073197BF01A32FEAE00E947D09E05DF7
:10046A00DB01EC930E940B073197BF01A32FEAE04F
:10047A000E94A709E05DDB01EC93A885B985E0E05D
:10048A00EC930E94000A60960895BA93AA93EF9794
:10049A0061970E94F70910E0FE01E85AFF4F0190A8
:1004AA00F081E02DE887F987FE01EA5AFF4F0190B3
:1004BA00F081E02DEE83FF83AE81BF81E0E0F0E0C2
:1004CA00ED93FC93DE01A45ABF4F0E94A806319710
:1004DA00E4912E2FE03009F4E9C1E12FE03039F43C
:1004EA00253211F411E002C00E941107DEC1E13089
:1004FA00C1F4253219F40E941107D6C112E0E0E0D6
:10050A00ED8B00E02D3211F401E0CFC12B3219F44A
:10051A00EBE2ED8BCAC1203219F4E0E2ED8BC5C1E2
:10052A0002C0E23039F450E013E0203311F40068DD
:10053A00BCC102C0E33091F4203310F02A3308F032
:10054A0007C0AAE05A9F502DE22FE0535E0FADC1BB
:10055A0040E02E3211F414E0A8C10FC0E43099F43F
:10056A00203310F02A3308F008C00062AAE04A9F3C
:10057A00402DE22FE0534E0F98C12C3619F4026039
:10058A0015E093C103C0E53009F08FC1E22FE336CD
:10059A0059F40E9418070E941F070E941807A48195
:1005AA00AA930E94260780C1E53411F0E53609F4C2
:1005BA0003C0E63609F048C0FE017696EE87FF874B
:1005CA000E942C070E94C7090E9433070E9438071D
:1005DA00AD85AA2332F0AD89AB3259F0A03281F051
:1005EA0017C00E943A070E94AF070E943307EDE244
:1005FA00ED8B07FF05C0ED89EA930E94260708C024
:10060A00EE85FF853196EE87FF873197AD89A08306
:10061A0005FF46E0263651F40E943A070E94DC099B
:10062A004A93AB89BC890E94D80509C00E943A073F
:10063A000E94DC094A932A93AC89BD8954DEFE01E3
:10064A0076960E943F071EC0E33739F40E943807A6
:10065A000E9447070E943F070EC0E037C1F40E947C
:10066A0038070E944707EE87FF87AE85BF850E943D
:10067A0083051E2F08600F77403011F0411708F0EC
:10068A0001C0142F40E0E0E0EC8B30E06DC0E436AE
:10069A0011F0E93611F4046002C0E537A1F4EAE08A
:1006AA00EC8B01FF08C0E0E0FAEC6AE97BE30E9408
:1006BA004C071AE022C0E0E1F7E260E070E00E9435
:1006CA004C0715E01AC0E83511F4086003C0E83792
:1006DA0009F0EAC0E0E1EC8B01FF08C0E0E0F0E0DD
:1006EA0060E070E10E944C0718E007C0E0E0F0E12A
:1006FA0060E070E00E944C0714E0403011F00F7780
:10070A0001C041E001FF08C00E9438070E942C077F
:10071A0014960E94C7090FC002FF07C00E9438073B
:10072A000E9447070E946A0906C00E9438070E9471
:10073A00470766277727EA87FB876C877D8702FF4B
:10074A0012C0AD85AA2342F40E943A070E945C09AE
:10075A000E943307EDE2ED8BED89E03019F01F5F5F
:10076A004F5F01C00B7F342F00FD14C0151710F422
:10077A00351708F00FC007FF08C002FF04C00B7F3F
:10078A002D89115001C020E301C020E20E94110707
:10079A005150ECCF141790F4006102FF06C00E947A
:1007AA00510709F0515011504150E0E3EA930E9479
:1007BA002607503009F051504150ECCF312FEC89C7
:1007CA00E030B9F43030A1F003FF06C0EE85FF85B2
:1007DA002591EE87FF8705C0AE85BF852D91AE872F
:1007EA00BF870E941107503009F051503150EACFAB
:1007FA0051C00E9463070E9482092E2F2A3030F0CE
:10080A0003FF02C0295C01C0295A01C0205D04FD12
:10081A0021C0213360F4A889B9898A899B89A130CA
:10082A00E0E0BE07E0E08E07E0E09E0709F40BC0B7
:10083A00431740F4531710F000FF01C010C020E224
:10084A0007FF08C020E3006102FF04C00E945107AD
:10085A0009F051500E941107503009F0515031509F
:10086A000E9463070E94B3090E943307EC89A88992
:10087A00B9898A899B89FF27662777270E94820977
:10088A000E944C07E889F9896A897B890E94F309E1
:10089A0009F0AFCF00FF08C0503031F05150E0E20C
:1008AA00EA930E942607F8CF10E00CCEAE81BF81F2
:1008BA000E94C3090E94FE09EF966F960895FF925F
:1008CA00F82E26970E94F9090E946C07309719F4AE
:1008DA00EFEFFFEF23C0DE0116960E9458098D0143
:1008EA000E946C07EE83FF83E0E0E887E987DE0178
:1008FA001A960E9458090E94C309FA93EA931A9316
:10090A000A93EEE3F1E0FA93EA93DE011A96BDDD6B
:10091A009F01AE81BF81E0E0EC93F9010E94000AD9
:10092A002A96FF900895FFE0FA95F1F70895A4B387
:10093A00AF70A4BBA99AA898F6DFAA9AF4DFA3B36A
:10094A00AA98F1DFAA9AEFDFAA98A7FDF5CF089532
:10095A00A07FAB2BA5BBAA9A0E949804AA980E94D2
:10096A0098040895AA93A998A4B3A76FA4BBB5B392
:10097A00BF70A881EDDFA881A295EADFA99A0C943D
:10098A006805AA9A0E949804E3B3AA980E94980458
:10099A00E07F08950E949804F4DFAE2FF2DFA99851
:1009AA00E295EA2B0895AA930E949C04E881F0E05C
:1009BA00EA54FD4FE081A981AE0F0E94B704798005
:1009CA006880229608950E949C04A2E00E94B704BF
:1009DA000E949C04ACE00E94B7040E949C04A1E01F
:1009EA000E94B704E0E06E2E7E2E0895AA93EF933C
:1009FA00FF93A8816894AA3019F0E894791430F02A
:100A0A006394E0E0EA93A62DCEDF36F073948FDF8D
:100A1A00A89AA8810E94B704FF91EF910C946805E7
:100A2A00BA93AA931A93A981BA81ED91A983BA8339
:100A3A001E2FE03019F0A12FD9DFF5CF18812396A8
:100A4A000895AA27BB271197F1F70895AA93A998A1
:100A5A00A4B3A76FA4BBB5B3BF70A8810E94AD04AD
:100A6A00A99A31C0AA93AA98A8989880E881E058D0
:100A7A00E093B802E881E054E093B9020E94730758
:100A8A000E9473070E947307DCDFA0E2DFDFD9DF71
:100A9A00A8E20E947807A4E00E947807A5E80E94CD
:100AAA007807A4B3AF70A4BBA99A0E94CF04E5301B
:100ABA0011F0E0E008C00E949C04A6E00E94B7047E
:100ACA000E94E804E1E021960895BA93AA93E99175
:100ADA00F991A991B991CD0105900D920020E1F704
:100AEA00FC010895BA93AA93A991B991EE27FF2719
:100AFA006D91662311F03196FBCF0895BA93AA93AC
:100B0A00AA27BB27E991F9910590002011F01196C7
:100B1A00FBCFFD0108950E94E1097B816A81F98179
:100B2A00E88177FB770F67FD7160972F9E5781F0F9
:100B3A0078F0983190F4AA27BB27882708948795DC
:100B4A00B795A7959A95D1F7EA23FB23682305C0A1
:100B5A00E8947727EE27FF2766276F77769508F4BC
:100B6A00606877F9A991B99189919991EA17FB0778
:100B7A006807790797FB08950E94E1090E94D20944
:100B8A000E9490050E94D70919F40E94CD0909C054
:100B9A00E6F70E94CD09A0E0B0E080E89FE30E945A
:100BAA004E0824960895D5D0E0E0EA83EFE3EB837C
:100BBA001A930A93EB85FC85EF3FAFEFFA0731F4FE
:100BCA0096D1A4EAB0E00E946A0584C0EF3FAFE77D
:100BDA00FA0731F48CD1A5EAB0E00E946A057AC01E
:100BEA00AC85AA2352F4E985FA856B857C850E9437
:100BFA00AF0782D186D1EDE2EC93A885A73010F039
:100C0A00E6E0E8871885E12F1150E03021F080D125
:100C1A00E5D083D1F8CF86D10E9455086DD110E076
:100C2A00E0E0F0E060E87FE378D17CD10E94380907
:100C3A0068F06ED1C0D071D11F5F173230F057D132
:100C4A00A9EAB0E00E946A0545C0EFCF103021F44E
:100C5A0058D1E0E3EC931DC0E12F1150E030C9F008
:100C6A0057D1BCD0B4D0DF01CB010E94C10555D108
:100C7A0059D10E94F3080E94E2070E2F42D1BCD03C
:100C8A00F0E046D13DD00E94A50855D1BAD034D162
:100C9A00E3CFE885E030D1F034D1EEE2EC93E88599
:100CAA00E150E887EF5F91F046D185D025D1E985FB
:100CBA00FA856B857C850E94E2070E2F22D19CD093
:100CCA00F0E039D11DD09DD017D1E9CFAE81BF81D7
:100CDA00E0E0EC93198108812D960895E0E0EA930B
:100CEA00A0E00C94D8040E941505E0E0EA93A1E084
:100CFA000C94D8040E941505A4E6B0E00C94A5074C
:100D0A000E946A090E941B080895A091A202B0914C
:100D1A00A3028091A4029091A502E0E0F0E060EACB
:100D2A0071E40E9438090895A091A202B091A30229
:100D3A008091A4029091A502E0E0F0E060EF71E4F6
:100D4A000E9438090895ED91FD913196FE93EE9334
:100D5A000895BA93AA932497E0E0E883E983089573
:100D6A00AC81BD818E819F81E0E0F0E060E271E4B8
:100D7A000E94A508EC83FD836E837F830895EC812E
:100D8A00FD816E817F81AC85BD858E859F850E94A0
:100D9A0038090895AC85BD858E859F850895EDEC4B
:100DAA00FCEC6CEC7DE30E94A508EC87FD876E875E
:100DBA007F873F5F0895E0E0F0E060E271E40E941F
:100DCA00A5080895EC87FD876E877F870895A0E0C0
:100DDA00B0E080E09FE30E9455080895EDECFCEC3A
:100DEA006CEC7DE30E94A5080895A885B985119643
:100DFA00A887B98711970895E02FE05DEC93E02F5B
:100E0A0008950E94E6090E944E080895E885F9852A
:100E1A003196E887F98708952A93AF81B885E985DD
:100E2A00FA8509950895FE01E65AFF4F0190F0816F
:100E3A00E02D08953497DE01A65ABF4FED93FC9337
:100E4A000895AF81B885E985FA8509950895DE0187
:100E5A00A65ABF4F0D90BC91A02D0895EA87FB8733
:100E6A006C877D870895DFDFE5CFEA85FB856C8592
:100E7A007D850895EE87FF87AE85BF850E94770539
:100E8A001E2F0895E4DF14960E94C3090895E88B83
:100E9A00F98B6A8B7B8B08950B7FED89EA93DE01D0
:100EAA00A95ABF4F0D90BC91A02DFE01E75AFF4FE2
:100EBA000190F081E02D099550300895E889F9896B
:100ECA006A897B89AA85BB858C859D850895DE0103
:100EDA001C960E9458090E94C30908950E9426057B
:100EEA00A0E30C942B050E94B7040C942605EE810E
:100EFA00FF81FA93EA930895E987FA876B877C87DB
:100F0A000895AE81BF811196AE83BF83119708956C
:100F1A00AA81BB818C819D810895EA83FB836C83BE
:100F2A007D830895EA81FB816C817D81A985BA85DB
:100F3A008B859C850895A985BA858B859C8508959E
:100F4A00109639F080ED97E00197F1F7A89511977F
:100F5A00C9F7089530976040704009F070580895B5
:100F6A00552342F4503811F4E0FF04C03196691F4A
:100F7A00791F6BF050E8572711F45F93CFC05F3F9A
:100F8A0031F0660F000C57956795752F08955F939A
:100F9A0000200AF0CFC0C8C050E8192E1522880FC9
:100FAA00991F9527550F879550E8072E0522660F3A
:100FBA00771F7527550F67950895689401C0E894BF
:100FCA005F93F2DF703818F07F3F08F4A7C056E14C
:100FDA00571BAAF4519558300EF4593030F0EFEF00
:100FEA00FFEF6FEF7FE777F91AC077275523B9F03C
:100FFA00EE0FFF1F661F771F5A95D1F710C077278C
:10100A00583028F0EF2FF62F672F5850F9CF552375
:10101A0031F076956795F795E7955A95D1F70020BF
:10102A000AF445D15F910895689401C0E894309715
:10103A0060407040B1F0002426F0772312F4009447
:10104A0036D1172E7EE1112032F07A95EE0FFF1F6E
:10105A00661F111CF9CFEF2FF62F612D5F938ADFE0
:10106A005F9108954F93AF01FD01DA01AB01BC0115
:10107A00CA01402D012C142E4F910895EA0FFB1F2F
:10108A00681F0895E095F0956095EF5FFF4F6F4FE9
:10109A0008955F9381DF903871F150E8152604C0F6
:1010AA005F937ADF903839F1703821F1572F591B45
:1010BA002BF112F4D7DFFACF583118F0AA27BB2741
:1010CA008827583028F0AB2FB82F88275850F9CFE7
:1010DA00552329F08695B795A7955A95D9F7502D96
:1010EA00512572F0CBDF38F46795F795E79573953C
:1010FA0013F420C0B7DF3EDF5F910895D8F7FBCF26
:10110A00EA1BFB0B680B51F010F40094BBDF66235B
:10111A0092F3EE0FFF1F661F7A95CBF7EE27FF2794
:10112A00662777275F910895EFEFFFEF6FE77FEF6D
:10113A005F910895EFEFFFEF6FE77FE75F91089503
:10114A005F932ADF703851F3903841F301240894F1
:10115A00791F23F41CF300203AF3ECCF0F921F936C
:10116A002F933F934F93112722279927689FA00116
:10117A008F9F302D410D591F6B9F300D411D591FF7
:10118A008E9F27D0BF9F25D06A9F23D0BE9F1DD098
:10119A00AF9F1BD0AE9F110D291F391F491F591F21
:1011AA00E32FF42F652F522F4F913F912F911F91CB
:1011BA000F9066232AF0550FEE1FFF1F661F02C00D
:1011CA0073954BF2CDDE5F910895100D211D391FE5
:1011DA0002C0200D311D491F591F08955F93DCDE9F
:1011EA00703821F411200AF49FCFA4CF903809F463
:1011FA0095CF01240894970B1BF4D4F30020F3CF66
:10120A00792F1F932F933F934F931124112722274E
:10121A0033274427552790E2AE17BF0786074107B1
:10122A0030F0AE1BBF0B860B410B089401C08894AB
:10123A00551F221F331F111CAA1FBB1F881F441FC3
:10124A009A9551F7F901612D4F913F912F911F9175
:10125A00662332F0550FEE1FFF1F661F7A9543F281
:10126A007FDE5F91089599239AF0772342F09717CA
:10127A0048F029F4AE17BF07860720F031F098949A
:10128A0088940895989408940895189488940895D1
:10129A007723C2F7971798F3A9F7EA17FB076807A6
:1012AA0088F399F3ECCF0024AF0DB01D0895F095A3
:1012BA0060957095E195FF4F6F4F7F4F0895FE2F10
:1012CA00FF0FFF0B6F2F7F2F08956F2F660F660B8F
:1012DA00762F0895002498E0AA0F001C0E1A10F425
:1012EA000E0E01C0A1609A95B9F7EA2FA02D0895B4
:1012FA0039D0F0DF0EF4E19508953F934F935F9351
:10130A00002411244427552730E2AA0FBB1F881F47
:10131A00991F001C111C441F551F0E1A1F0A460B49
:10132A00570B28F40E0E1F1E461F571F01C0A1603F
:10133A003A9559F7FD01BC01D001CA015F914F915D
:10134A003F910895E894A7FF02C0A1956894E7FD2C
:10135A00E195C0DFEA2F0EF4E1950895CEDFFD0195
:10136A00BC010895E894E7FF02C0E1956894A7FFDD
:10137A0004C0A19500F8039400FA0895ED91FC9138
:10138A0011970895ED91FD916D917C9113970895B0
:10139A00E881F9816A817B810895A881B9818A816E
:1013AA009B810895E883F9836A837B8308957A93FE
:1013BA006A93FA93EA9308959A938A93BA93AA93AB
:1013CA000895182E862F612D192E972F712D1B2EF9
:1013DA00BF2FF12D1A2EAE2FE12D089530976040C0
:1013EA00704008955A934A933A932A931A930A9308
:1013FA0008955D814C813B812A8119810881089574
:00000001FF
