:040000000C94590003
:100004000C9400000C9400000C9400000C9400006C
:100014000C9400000C9400000C9400000C9400005C
:100024000C9400000C9400000C9400000C9400004C
:100034000C9400000C9400000C9400000C9400003C
:100044000C9400000C9400000C9400000C9400002C
:1000540054686973206973204578657263697365B0
:1000640000666F72204D6963726F70726F636365AF
:10007400736F72004D6F73746166612046617A6CB0
:1000840069005069203D20252E3266002D4E414ED8
:10009400000080C001002D4E414E00494E46000034
:1000A4000200600296000100640298000000F894C7
:1000B400EE27ECBBF1E0FBBFEBBFE5BF8DE0A2E0B8
:1000C400BB27ED938A95E9F780E098E0A0E6ED93ED
:1000D4000197E9F7E4EAF0E085919591009761F0E2
:1000E400A591B59105901590BF01F00105900D9271
:1000F4000197E1F7FB01F0CFEFE5EDBFE8E0EEBFDC
:10010400C0E6D2E00C9486002997E0EDE883EFE0A6
:10011400E983E9E4EA83E0E4EB83E0E0E7BBE8BBFE
:10012400EFEFEABBA0E10E942905C89912C0E0E004
:10013400EA93A0E00E94B904A4E5B0E00E9405059A
:10014400E0E0EA93A1E00E94B904A5E6B0E00E94D1
:100154000505C89B26C0E0E0EA93A0E00E94B9042C
:10016400A8E7B0E00E940505E1E0EA93A1E00E945F
:10017400B904FE013496FA93EA93E6E8F0E0FA93C0
:10018400EA930E9423060E94590984E00E94FD0319
:100194002896DE0114960E94F604AAEFB0E00E94AD
:1001A4002207BBCFFFCFBA93AA931A930A93AA81CB
:1001B400BB8112960E944009309729F1AA81BB8124
:1001C40014960E9440098F01309761F00230E0E0FC
:1001D4001E0780F0F80131978F01AA81BB81149624
:1001E400ED93FC93AA81BB8112960E942806319755
:1001F400AC81A083AA81BB810E944009FF2312F035
:100204000E94280606C0AA81BB81EFEFFFEFED93A1
:10021400FC9319810881259608950E942E06E0E832
:10022400EA83EFE3EB830E947609EE85FF85EF3FD7
:10023400AFEFFA0749F4E885F985FA93EA93A0E960
:10024400B0E00E945C05B9C0EF3FAFE7FA0749F49C
:10025400E885F985FA93EA93A1E9B0E00E945C0588
:10026400ACC0AB85A73010F0E6E0EB871B85E12F2F
:100274001150E03019F00E943506F9CFEC85FD8568
:100284006E857F850E94700921F430E00E94350656
:100294002DC03B850E94440609F008F40BC00E945F
:1002A40035060E94440628F00E944C060E9451061E
:1002B400F8CF0DC00E94440640F40E944C060E94F0
:1002C4005D060E9464063150F5CF0E943506EC8528
:1002D400FD856E857F850E9469060E9464060E94E2
:1002E400440620F00E944C060E94510610E0EB8563
:1002F400E117B8F1AC81BD818E819F810E947006A7
:100304000E946906DF01CB010E946204EC83FD8335
:100314006E837F830E9423060E944C060E9470080D
:100324000E945F070E2F0E9477060E947E06FF2719
:10033400662777270E949807AC81BD818E819F81B3
:100344000E9422080E944C060E9483060E946406B2
:10035400E12F1F5FE03059F60E947706EEE2EC933E
:10036400C6CF0E9488063197AA85A08330302CF42A
:100374003195A885B985EDE203C0A885B985EBE27E
:10038400EC930E9488060E9488063197BF01A32F30
:10039400EAE00E94FA08E05DDB01EC930E94880623
:1003A4003197BF01A32FEAE00E942409E05DDB013D
:1003B400EC93A885B985E0E0EC930E947D096096F2
:1003C4000895BA93AA93EF9761970E94740910E075
:1003D400FE01E85AFF4F0190F081E02DE887F9878C
:1003E400FE01EA5AFF4F0190F081E02DEE83FF8376
:1003F400AE81BF81E0E0F0E0ED93FC93DE01A45A0E
:10040400BF4F0E9428063197E4912E2FE03009F463
:10041400E9C1E12FE03039F4253211F411E002C0D2
:100424000E948E06DEC1E130C1F4253219F40E9427
:100434008E06D6C112E0E0E0ED8B00E02D3211F41F
:1004440001E0CFC12B3219F4EBE2ED8BCAC12032AB
:1004540019F4E0E2ED8BC5C102C0E23039F450E09A
:1004640013E0203311F40068BCC102C0E33091F4FE
:10047400203310F02A3308F007C0AAE05A9F502D09
:10048400E22FE0535E0FADC140E02E3211F414E0D0
:10049400A8C10FC0E43099F4203310F02A3308F0D7
:1004A40008C00062AAE04A9F402DE22FE0534E0F9D
:1004B40098C12C3619F4026015E093C103C0E530ED
:1004C40009F08FC1E22FE33659F40E9495060E9489
:1004D4009C060E949506A481AA930E94A30680C14B
:1004E400E53411F0E53609F403C0E63609F048C0F6
:1004F400FE017696EE87FF870E94A9060E944409B2
:100504000E94B0060E94B506AD85AA2332F0AD89DB
:10051400AB3259F0A03281F017C00E94B7060E9496
:100524002C070E94B006EDE2ED8B07FF05C0ED89B4
:10053400EA930E94A30608C0EE85FF853196EE87F4
:10054400FF873197AD89A08305FF46E0263651F435
:100554000E94B7060E9459094A93AB89BC890E943C
:10056400820509C00E94B7060E9459094A932A933A
:10057400AC89BD8952DEFE0176960E94BC061EC07F
:10058400E33739F40E94B5060E94C4060E94BC06F3
:100594000EC0E037C1F40E94B5060E94C406EE877F
:1005A400FF87AE85BF850E9475051E2F08600F77F3
:1005B400403011F0411708F001C0142F40E0E0E092
:1005C400EC8B30E06DC0E43611F0E93611F40460D0
:1005D40002C0E537A1F4EAE0EC8B01FF08C0E0E0DB
:1005E400FAEC6AE97BE30E94C9061AE022C0E0E162
:1005F400F7E260E070E00E94C90615E01AC0E83531
:1006040011F4086003C0E83709F0EAC0E0E1EC8BBC
:1006140001FF08C0E0E0F0E060E070E10E94C9067C
:1006240018E007C0E0E0F0E160E070E00E94C90675
:1006340014E0403011F00F7701C041E001FF08C021
:100644000E94B5060E94A90614960E9444090FC090
:1006540002FF07C00E94B5060E94C4060E94E70874
:1006640006C00E94B5060E94C40666277727EA875B
:10067400FB876C877D8702FF12C0AD85AA2342F4F5
:100684000E94B7060E94D9080E94B006EDE2ED8BE5
:10069400ED89E03019F01F5F4F5F01C00B7F342FED
:1006A40000FD14C0151710F4351708F00FC007FF2C
:1006B40008C002FF04C00B7F2D89115001C020E344
:1006C40001C020E20E948E065150ECCF141790F422
:1006D400006102FF06C00E94CE0609F0515011507D
:1006E4004150E0E3EA930E94A306503009F05150D0
:1006F4004150ECCF312FEC89E030B9F43030A1F027
:1007040003FF06C0EE85FF852591EE87FF8705C0B0
:10071400AE85BF852D91AE87BF870E948E0650306F
:1007240009F051503150EACF51C00E94E0060E94B6
:10073400FF082E2F2A3030F003FF02C0295C01C0CD
:10074400295A01C0205D04FD21C0213360F4A88929
:10075400B9898A899B89A130E0E0BE07E0E08E0771
:10076400E0E09E0709F40BC0431740F4531710F060
:1007740000FF01C010C020E207FF08C020E30061B1
:1007840002FF04C00E94CE0609F051500E948E065A
:10079400503009F0515031500E94E0060E94300957
:1007A4000E94B006EC89A889B9898A899B89FF27A8
:1007B400662777270E94FF080E94C906E889F989FD
:1007C4006A897B890E94700909F0AFCF00FF08C0D5
:1007D400503031F05150E0E2EA930E94A306F8CF82
:1007E40010E00CCEAE81BF810E9440090E947B09BB
:1007F400EF966F960895FF92F82E26970E94760939
:100804000E94E906309719F4EFEFFFEF23C0DE01F1
:1008140016960E94D5088D010E94E906EE83FF8397
:10082400E0E0E887E987DE011A960E94D5080E9475
:100834004009FA93EA931A930A93E5EDF0E0FA93E8
:10084400EA93DE011A96BDDD9F01AE81BF81E0E02F
:10085400EC93F9010E947D092A96FF9008950E9465
:100864005E097B816A81F981E88177FB770F67FDF7
:100874007160972F9E5781F078F0983190F4AA27F1
:10088400BB27882708948795B795A7959A95D1F79C
:10089400EA23FB23682305C0E8947727EE27FF2784
:1008A40066276F77769508F4606877F9A991B9910E
:1008B40089919991EA17FB076807790797FB0895CF
:1008C4000E945E090E944F090E9431040E9454094B
:1008D40019F40E944A0909C0E6F70E944A09A0E0F7
:1008E400B0E080E89FE30E94CB0724960895FFE0E0
:1008F400FA95F1F70895A7B3AF70A7BBC19AC09852
:10090400F6DFC29AF4DFA6B3C298F1DFC29AEFDF32
:10091400C298A7FDF5CF0895A07FAB2BA8BBC29AC0
:100924000E947904C2980E9479040895AA93C198F8
:10093400A7B3A76FA7BBB8B3BF70A881EDDFA88129
:10094400A295EADFC19A0C945A05C29A0E947904CE
:10095400E6B3C2980E947904E07F08950E94790466
:10096400F4DFAE2FF2DFC198E295EA2B0895AA9343
:100974000E947D04E881F0E0E05AFD4FE081A98106
:10098400AE0F0E94980459804880229608950E94D0
:100994007D04A2E00E9498040E947D04ACE00E94C1
:1009A40098040E947D04A1E00E949804E0E04E2E89
:1009B4005E2E0895AA93EF93FF93A8816894AA30BA
:1009C40019F0E894571430F04394E0E0EA93A42D2E
:1009D400CEDF36F053948FDFC09AA8810E9498042A
:1009E400FF91EF910C945A05BA93AA931A93A98193
:1009F400BA81ED91A983BA831E2FE03019F0A12F9B
:100A0400D9DFF5CF10C0BA93AA931A93E981FA817A
:100A14003196E983FA833197E4911E2FE03019F07F
:100A2400A12FC8DFF3CF188123960895AA27BB27E7
:100A34001197F1F70895AA93C198A7B3A76FA7BB1D
:100A4400B8B3BF70A8810E948E04C19A31C0AA9322
:100A5400C298C0987880E881E058E0936202E88107
:100A6400E054E09363020E94F0060E94F0060E94A4
:100A7400F006DCDFA0E2DFDFD9DFA8E20E94F506A2
:100A8400A4E00E94F506A5E80E94F506A7B3AF709E
:100A9400A7BBC19A0E94B004E53011F0E0E008C0A1
:100AA4000E947D04A6E00E9498040E94C904E1E02B
:100AB40021960895BA93AA93E991F991A991B991CC
:100AC400CD0105900D920020E1F7FC010895BA9341
:100AD400AA93A991B991EE27FF276D91662311F08E
:100AE4003196FBCF0895BA93AA93AA27BB27E9911D
:100AF400F9910590002011F01196FBCFFD010895A6
:100B0400ABD0E0E0EA83EFE3EB831A930A93EB853F
:100B1400FC85EF3FAFEFFA0731F469D1AAE9B0E001
:100B24000E945C058AC0EF3FAFE7FA0731F45FD15A
:100B3400ABE9B0E00E945C0580C0AC85AA2352F406
:100B4400E985FA856B857C850E942C0755D159D19E
:100B5400EDE2EC93A885A73010F0E6E0E88718856D
:100B6400E12F1150E03021F053D1B8D056D1F8CF55
:100B740059D10E94D20740D110E0E0E0F0E060E8F3
:100B84007FE34BD14FD10E94B50868F041D193D097
:100B940044D11F5F173230F02AD1AFE9B0E00E9490
:100BA4005C054BC0EFCF103021F42BD1E0E3EC9384
:100BB40020C0E12F1150E030E1F02AD18FD087D04E
:100BC400DF01CB010E94620428D12CD10E9470085D
:100BD4000E945F070E2F15D18FD0F0E019D10E942B
:100BE400E7080E9498070E94220825D18AD004D1E0
:100BF400E0CFE885E030E9F004D1EEE2EC93E8855B
:100C0400E150E887EF5FA9F016D155D0F5D0E9851A
:100C1400FA856B857C850E945F070E2FF2D06CD01D
:100C2400F0E009D10E94E7080E9498076AD0E4D056
:100C3400E6CFAE81BF81E0E0EC93198108812D9667
:100C44000895EC81FD816E817F810895ED91FD9180
:100C54003196FE93EE930895BA93AA932497E0E015
:100C6400E883E9830895AC81BD818E819F81E0E0B2
:100C7400F0E060E271E40E942208EC83FD836E835D
:100C84007F830895DEDFAC85BD858E859F850E94B8
:100C9400B5080895AC85BD858E859F850895EDECD6
:100CA400FCEC6CEC7DE30E942208EC87FD876E87E8
:100CB4007F873F5F0895E0E0F0E060E271E40E9426
:100CC40022080895EC87FD876E877F870895A0E04A
:100CD400B0E080E09FE30E94D2070895EDECFCECC5
:100CE4006CEC7DE30E9422080895A885B9851196CD
:100CF400A887B98711970895E02FE05DEC93E02F62
:100D040008950E9463090E94CB070895E885F98538
:100D14003196E887F98708952A93AF81B885E985E4
:100D2400FA8509950895FE01E65AFF4F0190F08176
:100D3400E02D08953497DE01A65ABF4FED93FC933E
:100D44000895AF81B885E985FA8509950895DE018E
:100D5400A65ABF4F0D90BC91A02D0895EA87FB873A
:100D64006C877D870895DFDFE5CFEA85FB856C8599
:100D74007D850895EE87FF87AE85BF850E9469054E
:100D84001E2F0895E4DF14960E9440090895E88B0D
:100D9400F98B6A8B7B8B08950B7FED89EA93DE01D7
:100DA400A95ABF4F0D90BC91A02DFE01E75AFF4FE9
:100DB4000190F081E02D099550300895E889F98972
:100DC4006A897B89AA85BB858C859D850895DE010A
:100DD4001C960E94D5080E94400908950E94180597
:100DE400A0E30C941D050E9498040C941805EE8150
:100DF400FF81FA93EA930895E987FA876B877C87E2
:100E04000895AE81BF811196AE83BF831197089573
:100E1400AA81BB818C819D810895EA83FB836C83C5
:100E24007D830895EA81FB816C817D81A985BA85E2
:100E34008B859C850895A985BA858B859C850895A5
:100E4400109639F080ED97E00197F1F7A895119786
:100E5400C9F7089530976040704009F070580895BC
:100E6400552342F4503811F4E0FF04C03196691F51
:100E7400791F6BF050E8572711F45F93CFC05F3FA1
:100E840031F0660F000C57956795752F08955F93A1
:100E940000200AF0CFC0C8C050E8192E1522880FD0
:100EA400991F9527550F879550E8072E0522660F41
:100EB400771F7527550F67950895689401C0E894C6
:100EC4005F93F2DF703818F07F3F08F4A7C056E153
:100ED400571BAAF4519558300EF4593030F0EFEF07
:100EE400FFEF6FEF7FE777F91AC077275523B9F043
:100EF400EE0FFF1F661F771F5A95D1F710C0772793
:100F0400583028F0EF2FF62F672F5850F9CF55237C
:100F140031F076956795F795E7955A95D1F70020C6
:100F24000AF445D15F910895689401C0E89430971C
:100F340060407040B1F0002426F0772312F400944E
:100F440036D1172E7EE1112032F07A95EE0FFF1F75
:100F5400661F111CF9CFEF2FF62F612D5F938ADFE7
:100F64005F9108954F93AF01FD01DA01AB01BC011C
:100F7400CA01402D012C142E4F910895EA0FFB1F36
:100F8400681F0895E095F0956095EF5FFF4F6F4FF0
:100F940008955F9381DF903871F150E8152604C0FD
:100FA4005F937ADF903839F1703821F1572F591B4C
:100FB4002BF112F4D7DFFACF583118F0AA27BB2748
:100FC4008827583028F0AB2FB82F88275850F9CFEE
:100FD400552329F08695B795A7955A95D9F7502D9D
:100FE400512572F0CBDF38F46795F795E795739543
:100FF40013F420C0B7DF3EDF5F910895D8F7FBCF2D
:10100400EA1BFB0B680B51F010F40094BBDF662362
:1010140092F3EE0FFF1F661F7A95CBF7EE27FF279B
:10102400662777275F910895EFEFFFEF6FE77FEF74
:101034005F910895EFEFFFEF6FE77FE75F9108950A
:101044005F932ADF703851F3903841F301240894F8
:10105400791F23F41CF300203AF3ECCF0F921F9373
:101064002F933F934F93112722279927689FA0011D
:101074008F9F302D410D591F6B9F300D411D591FFE
:101084008E9F27D0BF9F25D06A9F23D0BE9F1DD09F
:10109400AF9F1BD0AE9F110D291F391F491F591F28
:1010A400E32FF42F652F522F4F913F912F911F91D2
:1010B4000F9066232AF0550FEE1FFF1F661F02C014
:1010C40073954BF2CDDE5F910895100D211D391FEC
:1010D40002C0200D311D491F591F08955F93DCDEA6
:1010E400703821F411200AF49FCFA4CF903809F46A
:1010F40095CF01240894970B1BF4D4F30020F3CF6D
:10110400792F1F932F933F934F9311241127222755
:1011140033274427552790E2AE17BF0786074107B8
:1011240030F0AE1BBF0B860B410B089401C08894B2
:10113400551F221F331F111CAA1FBB1F881F441FCA
:101144009A9551F7F901612D4F913F912F911F917C
:10115400662332F0550FEE1FFF1F661F7A9543F288
:101164007FDE5F91089599239AF0772342F09717D1
:1011740048F029F4AE17BF07860720F031F09894A1
:1011840088940895989408940895189488940895D8
:101194007723C2F7971798F3A9F7EA17FB076807AD
:1011A40088F399F3ECCF0024AF0DB01D0895F095AA
:1011B40060957095E195FF4F6F4F7F4F0895FE2F17
:1011C400FF0FFF0B6F2F7F2F08956F2F660F660B96
:1011D400762F0895002498E0AA0F001C0E1A10F42C
:1011E4000E0E01C0A1609A95B9F7EA2FA02D0895BB
:1011F40039D0F0DF0EF4E19508953F934F935F9358
:10120400002411244427552730E2AA0FBB1F881F4E
:10121400991F001C111C441F551F0E1A1F0A460B50
:10122400570B28F40E0E1F1E461F571F01C0A16046
:101234003A9559F7FD01BC01D001CA015F914F9164
:101244003F910895E894A7FF02C0A1956894E7FD33
:10125400E195C0DFEA2F0EF4E1950895CEDFFD019C
:10126400BC010895E894E7FF02C0E1956894A7FFE4
:1012740004C0A19500F8039400FA0895ED91FC913F
:1012840011970895ED91FD916D917C9113970895B7
:10129400E881F9816A817B810895A881B9818A8175
:1012A4009B810895E883F9836A837B8308957A9305
:1012B4006A93FA93EA9308959A938A93BA93AA93B2
:1012C4000895182E862F612D192E972F712D1B2E00
:1012D400BF2FF12D1A2EAE2FE12D089530976040C7
:1012E400704008955A934A933A932A931A930A930F
:1012F40008955D814C813B812A811981088108957B
:00000001FF
