:020000000C945E
:100002003D000C9400000C9400000C9400000C9431
:1000120000000C9400000C9400000C9400000C945E
:1000220000000C9400000C9400000C9400000C944E
:1000320000000C9400000C9400000C9400000C943E
:1000420000000C9400000C9400000C9400000C942E
:1000520000001027E80364000A00010000100001FC
:10006200100001003F0006005B004F0066006D00BB
:100072007D0007007F006F00F894EE27ECBBF1E0F3
:10008200FBBFEBBFE5BF8DE0A2E0BB27ED938A95F6
:10009200E9F780E098E0A0E6ED930197E9F7EFE554
:1000A200EDBFE8E0EEBFC0E6D2E00C9458006497E2
:1000B20084E1A0E0B0E0E6E6F0E00E94AA0000E001
:1000C20010E020E030E0EFEFEABBE7BB00E010E039
:1000D2000A30E0E01E072CF5002E012A61F420E030
:1000E20030E02A30E0E03E072CF40E9494002F5FBB
:1000F2003F4FF7CF13C020E030E02A30E0E03E0768
:100102006CF4F801DE01EE0FFF1FAE0FBF1FEC9182
:10011200EBBB0E9494002F5F3F4FEFCF0F5F1F4F4B
:10012200D7CFD1CFFFCFF901DE01EE0FFF1FAE0F08
:10013200BF1FEC91E8BBA4E1B0E00C94A0001096C4
:1001420039F080ED97E00197F1F7A8951197C9F77B
:100152000895AC0FBD1F05900D928A95E1F70895A1
:00000001FF
