:040000000C94430019
:100004000C9400000C9400000C9400000C9400006C
:100014000C9400000C9400000C9400000C9400005C
:100024000C9400000C9400000C9400000C9400004C
:100034000C9400000C9400000C9400000C9400003C
:100044000C9400000C9400000C9400000C9400002C
:1000540054656D7020697320252E316600430000BD
:100064002D4E414E000080C001002D4E414E0049EE
:100074004E460000020060026A00010064026C0047
:100084000000F894EE27ECBBF1E0FBBFEBBFE5BF4B
:100094008DE0A2E0BB27ED938A95E9F780E098E034
:1000A400A0E6ED930197E9F7E8E7F0E085919591F3
:1000B400009761F0A591B59105901590BF01F001ED
:1000C40005900D920197E1F7FB01F0CFEFE5EDBF4D
:1000D400E8E0EEBFC0E6D2E00C947E00AA93E8818B
:1000E400E7B98BE18A95F1F7369A349BFECF349ABF
:1000F400E4B1F5B10C940305649700E010E0E0E08E
:10010400EABBEBBBEFEFE1BBE0E0E2BBE7B9E2E85F
:10011400E6B9E0E0E0BFA0E10E94D2040E947204CC
:10012400A0E0DCDF8F010E947204D801E2E0F0E07D
:100134000E9404090E940E060E941306FE01FA930F
:10014400EA93E4E5F0E0FA93EA93EC89FD896E8999
:100154007F890E94710984E00E94EE032896E0E002
:10016400EA93A0E00E946204DE010E949F04EEE094
:10017400EA93A0E00E946204A1E6B0E00E94AE040B
:10018400A4E6B0E00E941007CBCFFFCFBA93AA93A6
:100194001A930A93AA81BB8112960E945809309738
:1001A40029F1AA81BB8114960E9458098F013097C6
:1001B40061F00230E0E01E0780F0F80131978F0112
:1001C400AA81BB811496ED93FC93AA81BB811296FC
:1001D4000E9418063197AC81A083AA81BB810E943A
:1001E4005809FF2312F00E94180606C0AA81BB8199
:1001F400EFEFFFEFED93FC931981088125960895A5
:100204000E941E06E0E8EA83EFE3EB830E948E0976
:10021400EE85FF85EF3FAFEFFA0749F4E885F985EE
:10022400FA93EA93A4E6B0E00E940505B7C0EF3F55
:10023400AFE7FA0749F4E885F985FA93EA93A5E666
:10024400B0E00E940505AAC0AB85A73010F0E6E037
:10025400EB871B85E12F1150E03019F00E94250631
:10026400F9CFEC85FD856E857F850E94880921F490
:1002740030E00E9425062DC03B850E94340609F01B
:1002840008F40BC00E9425060E94340628F00E9440
:100294003F060E944406F8CF0DC00E94340640F485
:1002A4000E943F060E9450060E9457063150F5CF27
:1002B4000E942506EC85FD856E857F850E945C067F
:1002C4000E9457060E94340620F00E943F060E94B6
:1002D400440610E0EB85E117A8F1AC81BD818E8165
:1002E4009F810E9463060E945C06DF01CB010E948D
:1002F4005C05EC83FD836E837F830E943F060E942E
:100304005E080E944D070E2F0E946A060E94710625
:10031400FF27662777270E948607AC81BD818E81DF
:100324009F810E9410080E943F060E9476060E9448
:100334005706E12F1F5FE03069F60E946A06EEE27D
:10034400EC93C8CF0E947B063197AA85A0833030F6
:100354002CF43195A885B985EDE203C0A885B9854B
:10036400EBE2EC930E947B060E947B063197BF016F
:10037400A32FEAE00E94EC08E05DDB01EC930E940D
:100384007B063197BF01A32FEAE00E942E09E05DAE
:10039400DB01EC93A885B985E0E0EC930E94950914
:1003A40060960895BA93AA93EF9761970E948C0977
:1003B40010E0FE01E85AFF4F0190F081E02DE8873C
:1003C400F987FE01EA5AFF4F0190F081E02DEE8398
:1003D400FF83AE81BF81E0E0F0E0ED93FC93DE01AA
:1003E400A45ABF4F0E9418063197E4912E2FE03093
:1003F40009F4E9C1E12FE03039F4253211F411E0B8
:1004040002C00E948106DEC1E130C1F4253219F434
:100414000E948106D6C112E0E0E0ED8B00E02D32AF
:1004240011F401E0CFC12B3219F4EBE2ED8BCAC118
:10043400203219F4E0E2ED8BC5C102C0E23039F498
:1004440050E013E0203311F40068BCC102C0E33073
:1004540091F4203310F02A3308F007C0AAE05A9F21
:10046400502DE22FE0535E0FADC140E02E3211F467
:1004740014E0A8C10FC0E43099F4203310F02A33FB
:1004840008F008C00062AAE04A9F402DE22FE05322
:100494004E0F98C12C3619F4026015E093C103C0C5
:1004A400E53009F08FC1E22FE33659F40E94880643
:1004B4000E948F060E948806A481AA930E94960631
:1004C40080C1E53411F0E53609F403C0E63609F0DD
:1004D40048C0FE017696EE87FF870E949C060E9424
:1004E4005C090E94A3060E94A806AD85AA2332F0E7
:1004F400AD89AB3259F0A03281F017C00E94AA0630
:100504000E941A070E94A306EDE2ED8B07FF05C0C7
:10051400ED89EA930E94960608C0EE85FF85319620
:10052400EE87FF873197AD89A08305FF46E0263625
:1005340051F40E94AA060E9471094A93AB89BC89AE
:100544000E94730509C00E94AA060E9471094A9379
:100554002A93AC89BD8954DEFE0176960E94AF06CB
:100564001EC0E33739F40E94A8060E94B7060E9411
:10057400AF060EC0E037C1F40E94A8060E94B70679
:10058400EE87FF87AE85BF850E941E051E2F08607B
:100594000F77403011F0411708F001C0142F40E0EC
:1005A400E0E0EC8B30E06DC0E43611F0E93611F494
:1005B400046002C0E537A1F4EAE0EC8B01FF08C057
:1005C400E0E0FAEC6AE97BE30E9413061AE022C039
:1005D400E0E1F7E260E070E00E94130615E01AC063
:1005E400E83511F4086003C0E83709F0EAC0E0E137
:1005F400EC8B01FF08C0E0E0F0E060E070E10E94F5
:10060400130618E007C0E0E0F0E160E070E00E944B
:10061400130614E0403011F00F7701C041E001FFF0
:1006240008C00E94A8060E949C0614960E945C09B9
:100634000FC002FF07C00E94A8060E94B7060E94CE
:10064400D90806C00E94A8060E94B7066627772725
:10065400EA87FB876C877D8702FF12C0AD85AA23DA
:1006640042F40E94AA060E94CB080E94A306EDE26F
:10067400ED8BED89E03019F01F5F4F5F01C00B7FF8
:10068400342F00FD14C0151710F4351708F00FC0EF
:1006940007FF08C002FF04C00B7F2D89115001C061
:1006A40020E301C020E20E9481065150ECCF1417D0
:1006B40090F4006102FF06C00E94BC0609F051508C
:1006C40011504150E0E3EA930E949606503009F03D
:1006D40051504150ECCF312FEC89E030B9F4303037
:1006E400A1F003FF06C0EE85FF852591EE87FF8705
:1006F40005C0AE85BF852D91AE87BF870E94810658
:10070400503009F051503150EACF51C00E94CE060A
:100714000E9409092E2F2A3030F003FF02C0295C01
:1007240001C0295A01C0205D04FD21C0213360F4B9
:10073400A889B9898A899B89A130E0E0BE07E0E0F5
:100744008E07E0E09E0709F40BC0431740F45317EB
:1007540010F000FF01C010C020E207FF08C020E332
:10076400006102FF04C00E94BC0609F051500E94BF
:100774008106503009F0515031500E94CE060E943B
:100784003A090E94A306EC89A889B9898A899B89B8
:10079400FF27662777270E9409090E941306E88924
:1007A400F9896A897B890E94880909F0AFCF00FF23
:1007B40008C0503031F05150E0E2EA930E949606AE
:1007C400F8CF10E00CCEAE81BF810E9458090E9480
:1007D4009309EF966F960895FF92F82E26970E943C
:1007E4008E090E94D706309719F4EFEFFFEF23C06C
:1007F400DE0116960E94C3088D010E94D706EE837F
:10080400FF83E0E0E887E987DE011A960E94C308C7
:100814000E945809FA93EA931A930A93E8ECF0E0D9
:10082400FA93EA93DE011A96BDDD9F01AE81BF8182
:10083400E0E0EC93F9010E9495092A96FF9008954F
:10084400FFE0FA95F1F70895A1B3AF70A1BB919AB7
:100854009098F6DF929AF4DFA0B39298F1DF929A1F
:10086400EFDF9298A7FDF5CF0895A07FAB2BA2BB35
:10087400929A0E94220492980E9422040895AA93B4
:100884009198A1B3A76FA1BBB2B3BF70A881EDDFEC
:10089400A881A295EADF919A0C940305929A0E948A
:1008A4002204E0B392980E942204E07F08950E94FB
:1008B4002204F4DFAE2FF2DF9198E295EA2B08953B
:1008C400AA930E942604E881F0E0E05AFD4FE081FB
:1008D400A981AE0F0E944104598048802296089550
:1008E4000E942604A2E00E9441040E942604ACE077
:1008F4000E9441040E942604A1E00E944104E0E019
:100904004E2E5E2E0895AA93EF93FF93A8816894C8
:10091400AA3019F0E894571430F04394E0E0EA93D5
:10092400A42DCEDF36F053948FDF909AA8810E94D5
:100934004104FF91EF910C940305BA93AA931A937F
:10094400A981BA81ED91A983BA831E2FE03019F0F1
:10095400A12FD9DFF5CF10C0BA93AA931A93E981D6
:10096400FA813196E983FA833197E4911E2FE030BE
:1009740019F0A12FC8DFF3CF188123960895AA2771
:10098400BB271197F1F70895AA939198A1B3A76F84
:10099400A1BBB2B3BF70A8810E943704919A31C041
:1009A400AA93929890987880E881E058E093620244
:1009B400E881E054E09363020E94DE060E94DE06B2
:1009C4000E94DE06DCDFA0E2DFDFD9DFA8E20E94BE
:1009D400E306A4E00E94E306A5E80E94E306A1B3AF
:1009E400AF70A1BB919A0E945904E53011F0E0E088
:1009F40008C00E942604A6E00E9441040E947204DA
:100A0400E1E021960895BA93AA93E991F991A99105
:100A1400B991CD0105900D920020E1F7FC010895F4
:100A2400BA93AA93A991B991EE27FF276D916623F2
:100A340011F03196FBCF0895BA93AA93AA27BB2746
:100A4400E991F9910590002011F01196FBCFFD0179
:100A540008950E9476097B816A81F981E88177FB98
:100A6400770F67FD7160972F9E5781F078F098316A
:100A740090F4AA27BB27882708948795B795A7954C
:100A84009A95D1F7EA23FB23682305C0E8947727D6
:100A9400EE27FF2766276F77769508F4606877F965
:100AA400A991B99189919991EA17FB076807790788
:100AB40097FB08950E9476090E9467090E942B05FE
:100AC4000E946C0919F40E94620909C0E6F70E94A9
:100AD4006209A0E0B0E080E89FE30E94B907249691
:100AE4000895AAD0E0E0EA83EFE3EB831A930A9334
:100AF400EB85FC85EF3FAFEFFA0731F466D1AEE644
:100B0400B0E00E94050584C0EF3FAFE7FA0731F477
:100B14005CD1AFE6B0E00E9405057AC0AC85AA239B
:100B240052F4E985FA856B857C850E941A0752D1B7
:100B340056D1EDE2EC93A885A73010F0E6E0E88703
:100B44001885E12F1150E03021F050D1BAD053D1A3
:100B5400F8CF56D10E94C0073DD110E0E0E0F0E0AC
:100B640060E87FE348D14CD10E94A30868F03ED1ED
:100B740095D041D11F5F173230F027D1A3E7B0E001
:100B84000E94050545C0EFCF103021F428D1E0E3E1
:100B9400EC931DC0E12F1150E030C9F027D191D062
:100BA40089D0DF01CB010E945C0525D129D10E94A7
:100BB4005E080E944D070E2F12D191D0F0E016D19D
:100BC4002BD00E94100825D18FD004D1E3CFE88523
:100BD400E030D1F004D1EEE2EC93E885E150E8870F
:100BE400EF5F91F016D15AD0F5D0E985FA856B857F
:100BF4007C850E944D070E2FF2D071D0F0E009D110
:100C04000BD072D0E7D0E9CFAE81BF81E0E0EC93A6
:100C1400198108812D9608950E94D9080E9486079B
:100C24000895E88BF98B6A8B7B8B0895ED91FD9188
:100C34003196FE93EE930895BA93AA932497E0E035
:100C4400E883E9830895AC81BD818E819F81E0E0D2
:100C5400F0E060E271E40E941008EC83FD836E838F
:100C64007F830895EC81FD816E817F81AC85BD8594
:100C74008E859F850E94A3080895AC85BD858E85C9
:100C84009F850895EDECFCEC6CEC7DE30E9410086C
:100C9400EC87FD876E877F873F5F0895E0E0F0E093
:100CA40060E271E40E9410080895EC87FD876E8766
:100CB4007F870895A0E0B0E080E09FE30E94C00732
:100CC4000895EDECFCEC6CEC7DE30E9410080895B3
:100CD400A885B9851196A887B98711970895E02F3B
:100CE400E05DEC93E02F08950E947B090E94B90710
:100CF4000895E885F9853196E887F98708952A9358
:100D0400AF81B885E985FA8509950895FE01E65A0B
:100D1400FF4F0190F081E02D08953497DE01A65A2B
:100D2400BF4FED93FC930895AF81B885E985FA85AB
:100D340009950895DE01A65ABF4F0D90BC91A02DD0
:100D44000895EA87FB876C877D870895DFDFE5CF09
:100D5400EA85FB856C857D850895EE87FF87AE85E2
:100D6400BF850E9412051E2F0895E4DF14960E9489
:100D7400580908950B7FED89EA93DE01A95ABF4F04
:100D84000D90BC91A02DFE01E75AFF4F0190F08118
:100D9400E02D099550300895E889F9896A897B899D
:100DA400AA85BB858C859D850895DE011C960E94CD
:100DB400C3080E94580908950E94C104A0E30C943A
:100DC400C6040E9441040C94C104EE81FF81FA938D
:100DD400EA930895E987FA876B877C870895AE8143
:100DE400BF811196AE83BF8311970895AA81BB81F9
:100DF4008C819D810895EA83FB836C837D830895B0
:100E0400EA81FB816C817D81A985BA858B859C856E
:100E14000895A985BA858B859C850895109639F027
:100E240080ED97E00197F1F7A8951197C9F7089518
:100E340030976040704009F070580895552342F48B
:100E4400503811F4E0FF04C03196691F791F6BF02C
:100E540050E8572711F45F93CFC05F3F31F0660F1E
:100E6400000C57956795752F08955F9300200AF03D
:100E7400CFC0C8C050E8192E1522880F991F952796
:100E8400550F879550E8072E0522660F771F7527A3
:100E9400550F67950895689401C0E8945F93F2DF55
:100EA400703818F07F3F08F4A7C056E1571BAAF426
:100EB400519558300EF4593030F0EFEFFFEF6FEFEB
:100EC4007FE777F91AC077275523B9F0EE0FFF1F94
:100ED400661F771F5A95D1F710C07727583028F02E
:100EE400EF2FF62F672F5850F9CF552331F0769511
:100EF4006795F795E7955A95D1F700200AF449D1FB
:100F04005F910895689401C0E89430976040704000
:100F1400B1F0002426F0772312F400943AD1172E6E
:100F24007EE1112032F07A95EE0FFF1F661F111C2F
:100F3400F9CFEF2FF62F612D5F938ADF5F9108952C
:100F44004F93AF01FD01DA01AB01BC01CA01402D91
:100F5400012C142E4F910895EA0FFB1F681F08956A
:100F6400E095F0956095EF5FFF4F6F4F08955F93A5
:100F740081DF903871F150E8152604C05F937ADF61
:100F8400903839F1703821F1572F591B2BF112F495
:100F9400D7DFFACF583118F0AA27BB278827583053
:100FA40028F0AB2FB82F88275850F9CF552329F0B4
:100FB4008695B795A7955A95D9F7502D512572F076
:100FC400CBDF38F46795F795E795739513F420C054
:100FD400B7DF3EDF5F910895D8F7FBCFEA1BFB0B29
:100FE400680B51F010F40094BBDF662392F3EE0F0C
:100FF400FF1F661F7A95CBF7EE27FF276627772713
:101004005F910895EFEFFFEF6FE77FEF5F91089532
:10101400EFEFFFEF6FE77FE75F9108955F932ADFBC
:10102400703851F3903841F301240894791F23F464
:101034001CF300203AF3ECCF0F921F932F933F93AE
:101044004F93112722279927689FA0018F9F302D46
:10105400410D591F6B9F300D411D591F8E9F27D085
:10106400BF9F25D06A9F23D0BE9F1DD0AF9F1BD0AA
:10107400AE9F110D291F391F491F591FE32FF42F4C
:10108400652F522F4F913F912F911F910F906623FF
:101094002AF0550FEE1FFF1F661F02C073954BF217
:1010A400CDDE5F910895100D211D391F02C0200D62
:1010B400311D491F591F08955F93DCDE703821F4F8
:1010C40011200AF49FCFA4CF903809F495CF0124BE
:1010D4000894970B1BF4D4F30020F3CF792F1F93BC
:1010E4002F933F934F93112411272227332744270B
:1010F400552790E2AE17BF078607410730F0AE1BB5
:10110400BF0B860B410B089401C08894551F221F06
:10111400331F111CAA1FBB1F881F441F9A9551F728
:10112400F901612D4F913F912F911F91662332F068
:10113400550FEE1FFF1F661F7A9543F27FDE5F9106
:10114400089599239AF0772342F0971748F029F4E9
:10115400AE17BF07860720F031F09894889408955D
:101164009894089408951894889408957723C2F75E
:10117400971798F3A9F7EA17FB07680788F399F319
:10118400ECCF0024AF0DB01D0895F195E195F0402A
:101194000895F09560957095E195FF4F6F4F7F4FDF
:1011A4000895FE2FFF0FFF0B6F2F7F2F08956F2FD2
:1011B400660F660B762F0895002498E0AA0F001C92
:1011C4000E1A10F40E0E01C0A1609A95B9F7EA2F19
:1011D400A02D089551D0F0DF0EF4E1950895002478
:1011E400112490E1AA0FBB1F001C111C0E1A1F0A28
:1011F40018F40E0E1F1E01C0A1609A9599F7FD0107
:10120400D001089545D0EBDF0EF4BFDF08953F937E
:101214004F935F93002411244427552730E2AA0FEB
:10122400BB1F881F991F001C111C441F551F0E1A39
:101234001F0A460B570B28F40E0E1F1E461F571F7E
:1012440001C0A1603A9559F7FD01BC01D001CA0162
:101254005F914F913F910895E894A7FF02C0A19533
:101264006894E7FDE195A8DFEA2F0EF4E19508956F
:10127400CEDFFD01BC010895E894E7FF02C0E195CB
:101284006894A7FF04C0A19500F8039400FA089598
:10129400E894F7FF02C079DF6894B7FF06C0A09511
:1012A400B095119600F8039400FA0895ED91FC911D
:1012B40011970895ED91FD916D917C911397089587
:1012C400E881F9816A817B810895A881B9818A8145
:1012D4009B810895E883F9836A837B8308957A93D5
:1012E4006A93FA93EA9308959A938A93BA93AA9382
:1012F4000895182E862F612D192E972F712D1B2ED0
:10130400BF2FF12D1A2EAE2FE12D08953097604096
:10131400704008955A934A933A932A931A930A93DE
:1013240008955D814C813B812A811981088108954A
:00000001FF
