:100000000C9441000C9400000C9400000C9400002F
:100010000C9400000C9400000C9400000C94000060
:100020000C9400000C9400000C9400000C946E00E2
:100030000C9400000C9400000C9400000C94000040
:100040000C9400000C9400000C9400000C94000030
:100050000C9400001027E80364000A00010000105F
:100060000001100001009B0076616C75653D256400
:10007000000080C0020006006600020071027200EB
:100080000000F894EE27ECBBF1E0FBBFEBBFE5BF4F
:100090008DE0A2E0BB27ED938A95E9F780E098E038
:1000A000A0E6ED930197E9F7E4E7F0E085919591FB
:1000B000009761F0A591B59105901590BF01F001F1
:1000C00005900D920197E1F7FB01F0CFEFE5EDBF51
:1000D000E8E0EEBFC0E6D2E00C947A00EA93FA932F
:1000E000EFB7EA93F20131962F01E991EFBFF99151
:1000F000E9911895E0E0EABBEBBBE7BBE8BBE4BBEA
:10010000E5BBE1BBE2BBE5E0E3BFE0E0E2BFECBFA3
:10011000EFBDEEBDEDBDECBDE7BDE6BDEBBDEABD9F
:10012000E9BDE8BDE2BDE5BDE4BDE3BDE1E0E9BF99
:10013000E0E0E5BFE4BFEAB9E0E8E8B9E0E0E0BF4D
:10014000E6B9EDB9E6BF7894A0E10E941C03ECE4A7
:10015000F0E0E415F50528F444245524F301319624
:100160003F01EFEFF0E0E615F70519F4EBE9F0E0F9
:100170003F01E0E6F2E0FA93EA93E8E6F0E0FA9372
:10018000EA93F301662777270E94AD0384E00E947B
:1001900049022896E0E0EA93A0E00E94BD02A0E6B2
:1001A000B2E00E94FA02D3CFFFCFBA93AA931A9378
:1001B0000A93AA81BB8112960E94A503309759F138
:1001C000AA81BB8114960E94A5038F01309761F02C
:1001D0000230E0E01E0798F0F80131978F01AA8104
:1001E000BB811496ED93FC93AA81BB811296ED918D
:1001F000FD913196FE93EE933197AC81A083AA8155
:10020000BB810E94A503FF232AF0ED91FD91319659
:10021000FE93EE9306C0AA81BB81EFEFFFEFED9353
:10022000FC931981088125960895BA93AA9326977D
:100230000E94B20310E0AC85BD85E0E0F0E0ED93F4
:10024000FC93EA89FB893196EA8BFB8B3197E49129
:100250002E2FE03009F415C1E12FE03039F42532BA
:1002600011F411E002C00E9468030AC1E130A9F450
:10027000253219F40E94680302C112E040E000E058
:100280002D3211F401E0FCC02B3211F44BE2F8C026
:10029000203211F440E2F4C002C0E23039F450E000
:1002A00013E0203311F40068EBC003C0E33009F021
:1002B000E7C0203310F02A3308F007C0AAE05A9FA5
:1002C000502DE22FE0535E0FDBC0E22FE33649F4FE
:1002D0000E946F03E889F989A481AA930E9475039B
:1002E000CEC0E33741F40E946F030E947B030E945B
:1002F0004F031E2F0AC0E03761F40E946F030E9473
:100300007B030E945B031E2F086002600F7730E0C2
:1003100034C0E43611F0E93611F4046002C0E53768
:1003200031F4E4E5F0E0EE83FF8315E00CC0E8353E
:1003300011F4086003C0E83709F0A1C0EEE5F0E071
:10034000EE83FF8314E002FF14C00E946F030E943B
:100350008503AB85AA233AF4EA85FB850E94A103B5
:10036000EA87FB874DE2403011F01F5F01C00B7F31
:1003700004C00E946F030E94850300FD11C0151781
:1003800078F407FF08C002FF04C00B7F242F115030
:1003900001C020E301C020E20E9468035150EFCF6A
:1003A000312F01FF17C03030A1F003FF06C0EE81EE
:1003B000FF812591EE83FF8305C0AE81BF812D9122
:1003C000AE83BF830E946803503009F05150315012
:1003D000EACF4BC020E3EE81FF810E94A903E887AA
:1003E000F987EE81FF813296EE83FF83E885F985F8
:1003F000AA85BB85AE17BF0750F02F5FA885B985CA
:10040000EA85FB85EA1BFB0BEA87FB87EFCF2A33E4
:1004100028F003FF02C0295F01C0295D04FD1AC056
:10042000213320F4A885B985119709F409C0531721
:1004300010F000FF01C013C020E207FF0BC020E353
:10044000006102FF07C00B7F4A930E947503503082
:1004500009F051500E946803503009F0515031505A
:10046000A885B985129708F0B5CF00FF08C05030B5
:1004700031F05150E0E2EA930E947503F8CF10E0AA
:10048000E0CEAC85BD850E94A5030E94B9036496A9
:100490000895FF92F82E26970E94B4030E948D03C0
:1004A000309719F4EFEFFFEF23C0DE0116960E949C
:1004B0009D038D010E948D03EE83FF83E0E0E887BA
:1004C000E987DE011A960E949D030E94A503FA9314
:1004D000EA931A930A93E5EDF0E0FA93EA93DE01CA
:1004E0001A96A3DE9F01AE81BF81E0E0EC93F90193
:1004F0000E94BB032A96FF900895FFE0FA95F1F75A
:100500000895A1B3AF70A1BB919A9098F6DF929A2B
:10051000F4DFA0B39298F1DF929AEFDF9298A7FDF3
:10052000F5CF0895A07FAB2BA2BB929A0E947D02CB
:1005300092980E947D020895AA939198A1B3A76F03
:10054000A1BBB2B3BF70A881EDDFA881A295EADF9D
:10055000919A0C944D03929A0E947D02E0B3929876
:100560000E947D02E07F08950E947D02F4DFAE2F9D
:10057000F2DF9198E295EA2B0895AA930E948102F6
:10058000E881F0E0EF58FD4FE081A981AE0F0E94B5
:100590009C0299808880229608950E948102A2E0A0
:1005A0000E949C020E948102ACE00E949C020E9478
:1005B0008102A1E00E949C02E0E08E2E9E2E089512
:1005C000AA93EF93FF93A8816894AA3019F0E89456
:1005D0009B1430F08394E0E0EA93A82DCEDF36F050
:1005E00093948FDF909AA8810E949C02FF91EF91D3
:1005F0000C944D03BA93AA931A93A981BA81ED91F1
:10060000A983BA831E2FE03019F0A12FD9DFF5CFCF
:10061000188123960895AA27BB271197F1F708950B
:10062000AA939198A1B3A76FA1BBB2B3BF70A881E1
:100630000E949202919A31C0AA9392989098B880A1
:10064000E881E058E0937302E881E054E09374029B
:100650000E9494030E9494030E949403DCDFA0E2B2
:10066000DFDFD9DFA8E20E949903A4E00E9499038A
:10067000A5E80E949903A1B3AF70A1BB919A0E9413
:10068000B402E53011F0E0E008C00E948102A6E06B
:100690000E949C020E94CD02E1E021960895BA9347
:1006A000AA93A991B991EE27FF276D91662311F0C6
:1006B0003196FBCF0895BA93AA93AA27BB27E99155
:1006C000F9910590002011F01196FBCFFD010895DE
:1006D0002A93AD85BE85EF85F88909950895E88947
:1006E000F9893497E88BF98B0895AD85BE85EF8540
:1006F000F88909950895A889B98914960E94A503D7
:10070000EE83FF83AE81BF810895A889B9891496CD
:100710000E94A503EA87FB870895DE011C960E94CC
:100720009D030E94A50308950E940B03A0E30C946F
:1007300010030E949C020C940B030024AF0DB01D0B
:100740000895F195E195F0400895ED91FC91119790
:1007500008950590F491E02D08957A936A93FA93A1
:10076000EA9308955A934A933A932A931A930A93D1
:1007700008955D814C813B812A811981088108950A
:00000001FF
