:080000000C943D000C9400007B
:100008000C9400000C9400000C9400000C94000068
:100018000C9400000C9400000C9400000C94000058
:100028000C9400000C946A000C9400000C940000DE
:100038000C9400000C9400000C9400000C94000038
:100048000C9400000C9400000C9400001027E803A6
:1000580064000A0001000010000110000100766130
:100068006C75653D2564000080C002007102700057
:100078000000F894EE27ECBBF1E0FBBFEBBFE5BF57
:100088008DE0A2E0BB27ED938A95E9F780E098E040
:10009800A0E6ED930197E9F7E2E7F0E08591959105
:1000A800009761F0A591B59105901590BF01F001F9
:1000B80005900D920197E1F7FB01F0CFEFE5EDBF59
:1000C800E8E0EEBFC0E6D2E00C947600EA93FA933B
:1000D800EFB7EA93F20131962F01E991EFBFF99159
:1000E800E9911895E0E0EABBEBBBE7BBE8BBE4BBF2
:1000F800E5BBE1BBE2BBE5E0E3BFE0E0E2BFECBFAC
:10010800EFBDEEBDEDBDECBDE7BDE6BDEBBDEABDA7
:10011800E9BDE8BDE2BDE5BDE4BDE3BDE1E0E9BFA1
:10012800E0E0E5BFE4BFEAB9E0E8E8B9E0E0E0BF55
:10013800E6B9EDB9E6BF7894A0E10E941003E0E2C9
:10014800F0E0E415F50528F444245524F30131962C
:100158003F01E0E6F2E0FA93EA93E6E6F0E0FA938C
:10016800EA93F301662777270E94A10384E00E949F
:100178003D022896E0E0EA93A0E00E94B102A0E6E2
:10018800B2E00E94EE02DBCFFFCFBA93AA931A9394
:100198000A93AA81BB8112960E949903309759F15C
:1001A800AA81BB8114960E9499038F01309761F050
:1001B8000230E0E01E0798F0F80131978F01AA811C
:1001C800BB811496ED93FC93AA81BB811296ED91A5
:1001D800FD913196FE93EE933197AC81A083AA816D
:1001E800BB810E949903FF232AF0ED91FD9131967E
:1001F800FE93EE9306C0AA81BB81EFEFFFEFED936C
:10020800FC931981088125960895BA93AA93269795
:100218000E94A60310E0AC85BD85E0E0F0E0ED9318
:10022800FC93EA89FB893196EA8BFB8B3197E49141
:100238002E2FE03009F415C1E12FE03039F42532D2
:1002480011F411E002C00E945C030AC1E130A9F474
:10025800253219F40E945C0302C112E040E000E07C
:100268002D3211F401E0FCC02B3211F44BE2F8C03E
:10027800203211F440E2F4C002C0E23039F450E018
:1002880013E0203311F40068EBC003C0E33009F039
:10029800E7C0203310F02A3308F007C0AAE05A9FBD
:1002A800502DE22FE0535E0FDBC0E22FE33649F416
:1002B8000E946303E889F989A481AA930E946903CB
:1002C800CEC0E33741F40E9463030E946F030E948B
:1002D80043031E2F0AC0E03761F40E9463030E94A3
:1002E8006F030E944F031E2F086002600F7730E0F3
:1002F80034C0E43611F0E93611F4046002C0E53781
:1003080031F4E4E5F0E0EE83FF8315E00CC0E83556
:1003180011F4086003C0E83709F0A1C0EEE5F0E089
:10032800EE83FF8314E002FF14C00E9463030E945F
:100338007903AB85AA233AF4EA85FB850E949503E5
:10034800EA87FB874DE2403011F01F5F01C00B7F49
:1003580004C00E9463030E94790300FD11C01517B1
:1003680078F407FF08C002FF04C00B7F242F115048
:1003780001C020E301C020E20E945C035150EFCF8E
:10038800312F01FF17C03030A1F003FF06C0EE8106
:10039800FF812591EE83FF8305C0AE81BF812D913A
:1003A800AE83BF830E945C03503009F05150315036
:1003B800EACF4BC020E3EE81FF810E949D03E887CE
:1003C800F987EE81FF813296EE83FF83E885F98510
:1003D800AA85BB85AE17BF0750F02F5FA885B985E2
:1003E800EA85FB85EA1BFB0BEA87FB87EFCF2A33FD
:1003F80028F003FF02C0295F01C0295D04FD1AC06F
:10040800213320F4A885B985119709F409C0531739
:1004180010F000FF01C013C020E207FF0BC020E36B
:10042800006102FF07C00B7F4A930E9469035030A6
:1004380009F051500E945C03503009F0515031507E
:10044800A885B985129708F0B5CF00FF08C05030CD
:1004580031F05150E0E2EA930E946903F8CF10E0CE
:10046800E0CEAC85BD850E9499030E94AD036496D9
:100478000895FF92F82E26970E94A8030E948103F0
:10048800309719F4EFEFFFEF23C0DE0116960E94B4
:1004980091038D010E948103EE83FF83E0E0E887EA
:1004A800E987DE011A960E9491030E949903FA9344
:1004B800EA931A930A93E9ECF0E0FA93EA93DE01DF
:1004C8001A96A3DE9F01AE81BF81E0E0EC93F901AB
:1004D8000E94AF032A96FF900895FFE0FA95F1F77E
:1004E8000895A1B3AF70A1BB919A9098F6DF929A44
:1004F800F4DFA0B39298F1DF929AEFDF9298A7FD0C
:10050800F5CF0895A07FAB2BA2BB929A0E947102EF
:1005180092980E9471020895AA939198A1B3A76F27
:10052800A1BBB2B3BF70A881EDDFA881A295EADFB5
:10053800919A0C944103929A0E947102E0B39298A6
:100548000E947102E07F08950E947102F4DFAE2FCD
:10055800F2DF9198E295EA2B0895AA930E9475021A
:10056800E881F0E0EF58FD4FE081A981AE0F0E94CD
:10057800900299808880229608950E947502A2E0D0
:100588000E9490020E947502ACE00E9490020E94B4
:100598007502A1E00E949002E0E08E2E9E2E089542
:1005A800AA93EF93FF93A8816894AA3019F0E8946E
:1005B8009B1430F08394E0E0EA93A82DCEDF36F068
:1005C80093948FDF909AA8810E949002FF91EF91F7
:1005D8000C944103BA93AA931A93A981BA81ED9115
:1005E800A983BA831E2FE03019F0A12FD9DFF5CFE8
:1005F800188123960895AA27BB271197F1F7089524
:10060800AA939198A1B3A76FA1BBB2B3BF70A881F9
:100618000E948602919A31C0AA9392989098B880C5
:10062800E881E058E0937302E881E054E0937402B3
:100638000E9488030E9488030E948803DCDFA0E2EE
:10064800DFDFD9DFA8E20E948D03A4E00E948D03BA
:10065800A5E80E948D03A1B3AF70A1BB919A0E9437
:10066800A802E53011F0E0E008C00E947502A6E09B
:100678000E9490020E94C102E1E021960895BA9377
:10068800AA93A991B991EE27FF276D91662311F0DE
:100698003196FBCF0895BA93AA93AA27BB27E9916D
:1006A800F9910590002011F01196FBCFFD010895F6
:1006B8002A93AD85BE85EF85F88909950895E8895F
:1006C800F9893497E88BF98B0895AD85BE85EF8558
:1006D800F88909950895A889B98914960E949903FB
:1006E800EE83FF83AE81BF810895A889B9891496E6
:1006F8000E949903EA87FB870895DE011C960E94F1
:1007080091030E94990308950E94FF02A0E30C94AC
:1007180004030E9490020C94FF020024AF0DB01D48
:100728000895F195E195F0400895ED91FC911197A8
:1007380008950590F491E02D08957A936A93FA93B9
:10074800EA9308955A934A933A932A931A930A93E9
:1007580008955D814C813B812A8119810881089522
:00000001FF
