:0E0000000C9434000C9400000C9400000C943E
:10000E0000000C9400000C9400000C9400000C9462
:10001E0000000C9400000C9400000C9400000C9452
:10002E0000000C9400000C9400000C9400000C9442
:10003E0000000C9400000C9400000C9400000C9432
:10004E0000000C9400003F0006005B004F006600AD
:10005E006D007D0007007F006F00F894EE27ECBB6B
:10006E00F1E0FBBFEBBFE5BF8DE0A2E0BB27ED9358
:10007E008A95E9F780E098E0A0E6ED930197E9F71D
:10008E00EFE5EDBFE8E0EEBFC0E6D2E00C944F0026
:10009E00649784E1A0E0B0E0E4E5F0E00E94D800CF
:1000AE0000E010E020E030E040E050E0EFEFEABB8F
:1000BE00E4BBE0E0E1BB809920C040E050E04B3172
:1000CE00E0E05E0744F447D0022E032A09F051D037
:1000DE004F5F5F4FF4CF0F5F1F4FEAE0F0E0E01786
:1000EE00F10721F400E010E02F5F3F4FEAE0F0E06F
:1000FE00E217F30711F420E030E0809B1DC040E0D2
:10010E0050E04B31E0E05E072CF425D032D04F5F4B
:10011E005F4FF7CF01501040EFEFFFEFE017F10701
:10012E0021F409E010E021503040EFEFFFEFE2172D
:10013E00F30711F429E030E0819B04C000E010E0E9
:10014E0020E030E0829B05C006D013D0829B01C018
:10015E00FBCFACCFFFCFA898A99AF801DE01EE0F26
:10016E00FF1FAE0FBF1FEC91EBBBA1E0B0E00C94F4
:10017E00CE00A998A89AF901DE01EE0FFF1FAE0F6F
:10018E00BF1FEC91EBBBA1E0B0E00C94CE0010963B
:10019E0039F080ED97E00197F1F7A8951197C9F71F
:1001AE000895AC0FBD1F05900D928A95E1F7089545
:00000001FF
