:080000000C94E8000C940000D0
:100008000C9400000C9400000C9400000C94000068
:100018000C9400000C9400000C9400000C94000058
:100028000C9400000C9400000C9400000C94000048
:100038000C9400000C9400000C9400000C94000038
:100048000C9400000C9400000C9400001027E803A6
:1000580064000A0001000010000110000100C00047
:10006800F900A400B000990092008200F800800016
:1000780090000000010002000300040005000600D3
:1000880007000800090044454320544F2042494EC8
:1000980000434F554E54494E47203020544F20318D
:1000A80000434F554E54494E47203020544F20327C
:1000B80000434F554E54494E47203020544F20336B
:1000C80000434F554E54494E47203020544F20345A
:1000D80000434F554E54494E47203020544F203549
:1000E80000434F554E54494E47203020544F203638
:1000F80000434F554E54494E47203020544F203727
:1001080000434F554E54494E47203020544F203815
:1001180000434F554E54494E47203020544F203904
:100128000043414E275420434F554E5400434F55EA
:100138004E54494E47203120544F203000434F55EC
:100148004E54494E47203220544F203000434F55DB
:100158004E54494E47203320544F203000434F55CA
:100168004E54494E47203420544F203000434F55B9
:100178004E54494E47203520544F203000434F55A8
:100188004E54494E47203620544F203000434F5597
:100198004E54494E47203720544F203000434F5586
:1001A8004E54494E47203820544F203000434F5575
:1001B8004E54494E47203920544F2030000080C00B
:1001C80002006002C6010000F894EE27ECBBF1E0E3
:1001D800FBBFEBBFE5BF8DE0A2E0BB27ED938A959F
:1001E800E9F780E098E0A0E6ED930197E9F7E8ECFD
:1001F800F1E085919591009761F0A591B5910590F1
:100208001590BF01F00105900D920197E1F7FB01F0
:10021800F0CFEFE5EDBFE8E0EEBFC0E6D2E00C942A
:100228001501A89788E2A0E0B0E0E6E6F0E00E94B9
:100238000D0400E010E0E0E0E8BBE7BBA0E10E94AD
:100248009F030E944E03E3E0EA93A0E00E943E036E
:10025800AEE8B0E00E947B03EFEFEABBE1BB9F9BF7
:10026800E4C0989B06C0999904C09A9902C09B9BC8
:1002780001C00FC00E94D203A9E9B0E00E94D703D1
:100288000230E0E01E072CF40E94DC030F5F1F4FD2
:10029800F7CF989906C0999B04C09A9902C09B9B76
:1002A80001C00FC00E94D203A9EAB0E00E94D703A0
:1002B8000330E0E01E072CF40E94DC030F5F1F4FA1
:1002C800F7CF989B06C0999B04C09A9902C09B9B44
:1002D80001C00FC00E94D203A9EBB0E00E94D7036F
:1002E8000430E0E01E072CF40E94DC030F5F1F4F70
:1002F800F7CF989906C0999904C09A9B02C09B9B16
:1003080001C00FC00E94D203A9ECB0E00E94D7033D
:100318000530E0E01E072CF40E94DC030F5F1F4F3E
:10032800F7CF989B06C0989B04C09A9B02C09B9BE2
:1003380001C00FC00E94D203A9EDB0E00E94D7030C
:100348000630E0E01E072CF40E94DC030F5F1F4F0D
:10035800F7CF989906C0999B04C09A9B02C09B9BB3
:1003680001C00FC00E94D203A9EEB0E00E94D703DB
:100378000730E0E01E072CF40E94DC030F5F1F4FDC
:10038800F7CF989B06C0999B04C09A9B02C09B9B81
:1003980001C00FC00E94D203A9EFB0E00E94D703AA
:1003A8000830E0E01E072CF40E94DC030F5F1F4FAB
:1003B800F7CF989906C0999904C09A9902C09B9959
:1003C80001C00FC00E94D203A9E0B1E00E94D70388
:1003D8000930E0E01E072CF40E94DC030F5F1F4F7A
:1003E800F7CF989B06C0999904C09A9902C09B9927
:1003F80001C00FC00E94D203A9E1B1E00E94D70357
:100408000A30E0E01E072CF40E94DC030F5F1F4F48
:10041800F7CF989906C0999904C09A9902C09B9BF6
:1004280001C002C00E94F103E3C0989B06C09999DD
:1004380004C09A9902C09B9B01C00FC00E94D203BE
:10044800A5E3B1E00E947B0301E010E011232AF04C
:100458000E94DC0301501040F9CF989906C0999B7F
:1004680004C09A9902C09B9B01C00FC00E94D2038E
:10047800A5E4B1E00E947B0302E010E011232AF01A
:100488000E94DC0301501040F9CF989B06C0999B4D
:1004980004C09A9902C09B9B01C00FC00E94D2035E
:1004A800A5E5B1E00E947B0303E010E011232AF0E8
:1004B8000E94DC0301501040F9CF989906C0999921
:1004C80004C09A9B02C09B9B01C00FC00E94D2032C
:1004D800A5E6B1E00E947B0304E010E011232AF0B6
:1004E8000E94DC0301501040F9CF989B06C09999EF
:1004F80004C09A9B02C09B9B01C00FC00E94D203FC
:10050800A5E7B1E00E947B0305E010E011232AF083
:100518000E94DC0301501040F9CF989906C0999BBE
:1005280004C09A9B02C09B9B01C00FC00E94D203CB
:10053800A5E8B1E00E947B0306E010E011232AF051
:100548000E94DC0301501040F9CF989B06C0999B8C
:1005580004C09A9B02C09B9B01C00FC00E94D2039B
:10056800A5E9B1E00E947B0307E010E011232AF01F
:100578000E94DC0301501040F9CF989906C0999960
:1005880004C09A9902C09B9901C00FC00E94D2036F
:10059800A5EAB1E00E947B0308E010E011232AF0ED
:1005A8000E94DC0301501040F9CF989B06C099992E
:1005B80004C09A9902C09B9901C00FC00E94D2033F
:1005C800A5EBB1E00E947B0309E010E011232AF0BB
:1005D8000E94DC0301501040F9CF989906C0999900
:1005E80004C09A9902C09B9B01C002C00E94F103FB
:1005F80033CEFFCFFFE0FA95F1F70895A7B3AF70B8
:10060800A7BBC19AC098F6DFC29AF4DFA6B3C29816
:10061800F1DFC29AEFDFC298A7FDF5CF0895A07F5A
:10062800AB2BA8BBC29A0E94FE02C2980E94FE028F
:100638000895AA93C198A7B3A76FA7BBB8B3BF7013
:10064800A881EDDFA881A295EADFC19A0C94D003B6
:10065800C29A0E94FE02E6B3C2980E94FE02E07FA0
:1006680008950E94FE02F4DFAE2FF2DFC198E295F2
:10067800EA2B0895AA930E940203E881F0E0E05A69
:10068800FD4FE081A981AE0F0E941D03598048806B
:10069800229608950E940203A2E00E941D030E9470
:1006A8000203ACE00E941D030E940203A1E00E9425
:1006B8001D03E0E04E2E5E2E0895AA93EF93FF935C
:1006C800A8816894AA3019F0E894571430F043943C
:1006D800E0E0EA93A42DCEDF36F053948FDFC09A82
:1006E800A8810E941D03FF91EF910C94D003BA9347
:1006F800AA931A93E981FA813196E983FA833197AB
:10070800E4911E2FE03019F0A12FD7DFF3CF188125
:1007180023960895AA27BB271197F1F70895AA935E
:10072800C198A7B3A76FA7BBB8B3BF70A8810E9431
:100738001303C19A31C0AA93C298C0987880E881FF
:10074800E058E0936202E881E054E09363020E947B
:10075800FA030E94FA030E94FA03DCDFA0E2DFDF5B
:10076800D9DFA8E20E94FF03A4E00E94FF03A5E8E6
:100778000E94FF03A7B3AF70A7BBC19A0E943503BD
:10078800E53011F0E0E008C00E940203A6E00E94F4
:100798001D030E944E03E1E021960895E0E0EA93EC
:1007A800A1E00C943E030E947B0300E010E0089552
:1007B800F801DE015496EE0FFF1FAE0FBF1FEC913C
:1007C800EBBBF801DE01EE0FFF1FAE0FBF1FEC9170
:1007D800E2BBA4E6B0E00C940304E3E0EA93A1E0F2
:1007E8000E943E03A9E2B1E00C947B030E948E03B1
:1007F800A0E30C9493030E941D030C948E0310969F
:1008080039F080ED97E00197F1F7A8951197C9F7AE
:100818000895AC0FBD1F05900D928A95E1F70895D4
:00000001FF
